:100000000EC028C027C026C025C032C023C022C0D1
:1000100021C020C01FC01EC01DC01CC01BC0112499
:100020001FBECFE5D2E0DEBFCDBF10E0A0E6B0E05E
:10003000ECE4F1E002C005900D92A036B107D9F7CB
:1000400010E0A0E6B0E001C01D92A936B107E1F7CB
:1000500004D07AC0D5CF08950895CF93DF935CD0B4
:10006000FADFC0E0D0E0F8DF2097E9F3C9DFFBCF8B
:100070001F920F920FB60F9211242F933F934F931D
:100080005F936F937F938F939F93AF93BF932091D1
:100090006400309165004091660050916700709156
:1000A0006800DA01C9014096A11DB11D672F605D8E
:1000B0006D3730F06D57DA01C9014196A11DB11DB0
:1000C000609368008093640090936500A09366003D
:1000D000B09367008091600090916100A0916200F0
:1000E000B09163000196A11DB11D809360009093B3
:1000F0006100A0936200B0936300BF91AF919F91A4
:100100008F917F916F915F914F913F912F910F90C0
:100110000FBE0F901F90189578948AB582608ABDA3
:100120008AB581608ABD83B7826083BF83B78160EF
:1001300083BF89B7826089BF80B7826080BF329AEF
:0C014000319A309A379A0895F894FFCF56
:00000001FF
