:1000000026C040C03FC03EC03DC055C03BC03AC006
:1000100039C038C037C036C035C034C033C0000026
:10002000000037000000000038000000000036002B
:10003000020202020202020202020102040810206D
:10004000200410080102000000000000000011243C
:100050001FBECFE5D2E0DEBFCDBF10E0A0E6B0E02E
:10006000E4E4F3E002C005900D92A236B107D9F79F
:1000700010E0A2E6B0E001C01D92AB36B107E1F797
:1000800054D15EC1BDCF8091600061E01AD168EEAD
:1000900073E080E090E063D08091600060E011D177
:1000A00068EE73E080E090E05AD00895809160009F
:1000B00061E0C8D008951F920F920FB60F921124DD
:1000C0002F933F934F935F936F937F938F939F9360
:1000D000AF93BF9320916600309167004091680014
:1000E0005091690070916A00DA01C9014096A11D22
:1000F000B11D672F605D6D3730F06D57DA01C901B2
:100100004196A11DB11D60936A0080936600909393
:100110006700A0936800B09369008091620090919D
:100120006300A0916400B09165000196A11DB11D0E
:100130008093620090936300A0936400B093650085
:10014000BF91AF919F918F917F916F915F914F91EF
:100150003F912F910F900FBE0F901F9018959B010C
:10016000AC017FB7F8948091620090916300A091F8
:100170006400B091650062B708B601FE05C06F3F2C
:1001800019F00196A11DB11D7FBFBA2FA92F982F7D
:100190008827860F911DA11DB11D66E0880F991F4C
:1001A000AA1FBB1F6A95D1F7BC012EC0FFB7F894F8
:1001B0008091620090916300A0916400B09165000D
:1001C000E2B708B601FE05C0EF3F19F00196A11D88
:1001D000B11DFFBFBA2FA92F982F88278E0F911D11
:1001E000A11DB11DE6E0880F991FAA1FBB1FEA954C
:1001F000D1F7861B970B885E9340C0F221503040A8
:100200004040504068517C4F211531054105510552
:1002100069F6089578948AB582608ABD8AB581604E
:100220008ABD83B7826083BF83B7816083BF89B78C
:10023000826089BF80B7826080BF329A319A309ADB
:10024000379A0895CF93DF93482F50E0CA01865C18
:100250009F4FFC013491405D5F4FFA0184918823E8
:1002600069F190E0880F991FFC01E25EFF4FA591B4
:10027000B491FC01EC5DFF4FC591D491662351F41C
:100280002FB7F8948C91932F909589238C93888124
:1002900089230BC0623061F42FB7F8948C91932FAF
:1002A000909589238C938881832B88832FBF06C0E8
:1002B0009FB7F8948C91832B8C939FBFDF91CF9144
:1002C0000895482F50E0CA018C5B9F4FFC01249198
:1002D000CA01865C9F4FFC019491405D5F4FFA011B
:1002E0003491332309F1222359F0213019F02230BF
:1002F00039F403C08AB58F7702C08AB58F7D8ABD75
:10030000E32FF0E0EE0FFF1FEC5DFF4FA591B491DE
:100310002FB7F894662321F48C919095892302C01D
:100320008C91892B8C932FBF0895CF93DF9372DF2D
:10033000BDDEC0E0D0E0A7DE2097E9F361DEFBCFB1
:04034000F894FFCF5F
:020344000400B3
:00000001FF
